:100000000C945A000C9477000C9477000C947700B1
:100010000C9477000C9477000C9477000C94770084
:100020000C9477000C9477000C9477000C94770074
:100030000C9477000C9477000C9477000C94770064
:100040000C9477000C9477000C9477000C94770054
:100050000C9477000C9477000C9477000C94770044
:100060000C9477000C9477000C9477000C94770034
:100070000C9477000C9477000C9477000C94770024
:100080000C9477000C9477000C9477000C94770014
:100090000C9477000C9477000C9477000C94770004
:1000A0000C9477000C9477000C9477000C947700F4
:1000B0000C94770011241FBECFEFD8E0DEBFCDBF78
:1000C00011E0A0E0B1E0E2EFF1E002C005900D9296
:1000D000A834B107D9F721E0A8E4B1E001C01D922E
:1000E000A835B207E1F70E949A000C94F7000C942F
:1000F0000000E0E0F1E084A195A19093A900809335
:10010000A8002FEF89E698E1215080409040E1F768
:1001100000C000008089918990938B0080938A00B1
:100120002FEF89E698E1215080409040E1F700C030
:10013000000008958FEF8AB98FE084B9E0E9F0E01C
:10014000808182688083E1E9F0E080818A69808330
:10015000E8E9F0E0808191819183808380E593ECF0
:100160009093970080939600A0E8B0E02C912268CD
:100170002C93E1E8F0E020812A692083C8E8D0E0F0
:10018000288139812065336C39832883C6E8D0E023
:10019000198218822C9122622C9320812A69208353
:1001A000EAE8F0E0208131813183208399838883DC
:1001B000E0EAF0E0208122682083E1EAF0E020819B
:1001C0002A692083E8EAF0E02081318131832083AD
:1001D0009093A7008093A60010924F0110924E01B9
:1001E00010924901109248010E947900FDCFF894C5
:0201F000FFCF3F
:1001F200E8034C04B00414057805DC054006A406A7
:1002020008076C07D00734089808FC086009C4097D
:10021200280A8C0AF00A540BB80B1C0C800CE40C54
:10022200480DAC0D100E740ED80E3C0FA00F04102A
:080232006810CC10301194118A
:00000001FF
